:020000040800F2
:100000000000032071650008113900081339000849
:1000100015390008173900081939000800000000D8
:100020000000000000000000000000001B39000874
:100030001D390008000000001F39000821390008A0
:10004000C1650008C1650008C1650008C1650008F8
:10005000C1650008C1650008C1650008C1650008E8
:10006000C1650008C1650008C1650008C1650008D8
:10007000C1650008C1650008C1650008C1650008C8
:10008000C1650008C1650008C1650008C1650008B8
:10009000C1650008C1650008C1650008C1650008A8
:1000A000C1650008C1650008C1650008293900085C
:1000B00039390008C1650008C1650008C16500083C
:1000C000C1650008C1650008C1650008C165000878
:1000D000C165000849390008C1650008C16500080C
:1000E000C1650008C1650008C1650008C165000858
:1000F000C1650008C1650008C1650008C165000848
:10010000C1650008C1650008C1650008C165000837
:10011000C1650008C1650008C1650008C165000827
:10012000C1650008C1650008C1650008C165000817
:10013000C1650008C1650008C1650008C165000807
:10014000C1650008C1650008C1650008C1650008F7
:10015000C1650008C1650008C1650008C1650008E7
:10016000C1650008C1650008C1650008C1650008D7
:10017000C1650008C1650008C165000800000000F5
:10018000C1650008C1650008C1650008C1650008B7
:10019000C1650008C1650008C1650008C1650008A7
:0C01A000C1650008C1650008C1650008C9
:1001C0000348044B834202D0034B03B118477047E6
:1001D0007000002070000020000000000548064963
:1001E0000B1AD90F01EBA301491002D0034B03B145
:1001F00018477047700000207000002000000000C9
:1002000010B5064C237843B9FFF7DAFF044B13B15E
:100210000448AFF300800123237010BD700000205C
:1002200000000000C465000808B5044B1BB1044978
:100230000448AFF30080BDE80840CFE700000000AD
:1002400074000020C4650008014B1868704700BFA7
:100250000000002070B50D4E0D4D761BB61006D077
:100260000024013455F8043B9847A642F9D1094EC1
:10027000094D761B06F0A6F9B61006D0002401340D
:1002800055F8043B9847A642F9D170BD6467000851
:10029000646700086867000864670008F0B48607B0
:1002A00046D0541E002A3CD0CAB2034602E014F1E4
:1002B000FF3436D303F8012B9D07F8D1032C29D93D
:1002C000CDB245EA05250F2C45EA054533D9A4F101
:1002D0001006360903F1200707EB061703F1100299
:1002E00042E9045542E902551032BA42F8D1721C73
:1002F00014F00C0F03EB021204F00F0613D0331F9F
:1003000023F003030433134442F8045B9342FBD10C
:1003100006F003042CB1C9B21C4403F8011B9C4233
:10032000FBD1F0BC704734461346002CF3D1F8E7FC
:1003300014460346C2E71A462646E0E70CB470B5F9
:100340009CB020AC0B4E54F8042B0291234606912E
:100350006FF0004502A901940795CDE9045600F01D
:1003600035FC029B00221A701CB0BDE8704002B040
:10037000704700BF0802FFFF0EB430B59CB01FAB42
:100380000C4C0D4D53F8042B01930146029106913C
:10039000206802A96FF000440794CDE9044500F0FD
:1003A00015FC029B00221A701CB0BDE8304003B05F
:1003B000704700BF000000200802FFFF80EA010232
:1003C000844612F0030F4FD111F0030F32D14DF8D4
:1003D000044D11F0040F51F8043B0BD0A3F101328E
:1003E0009A4312F0803F04BF4CF8043B51F8043BA1
:1003F00016D100BF51F8044BA3F101329A4312F019
:10040000803FA4F101320BD14CF8043BA24312F01F
:10041000803F04BF51F8043B4CF8044BEAD023461C
:100420000CF8013B13F0FF0F4FEA3323F8D15DF8CE
:10043000044B704711F0010F06D011F8012B0CF896
:10044000012B002A08BF704711F0020FBFD031F80E
:10045000022B12F0FF0F16BF2CF8022B8CF8002095
:1004600012F47F4FB3D1704711F8012B0CF8012B18
:10047000002AF9D1704700BF000000000000000012
:1004800090F800F06DE9024520F007016FF0000CD4
:1004900010F0070491F820F040F049804FF000047C
:1004A0006FF00700D1E9002391F840F000F1080057
:1004B00082FA4CF2A4FA8CF283FA4CF3A2FA8CF38F
:1004C0004BBBD1E9022382FA4CF200F10800A4FAF6
:1004D0008CF283FA4CF3A2FA8CF3E3B9D1E904234A
:1004E00082FA4CF200F10800A4FA8CF283FA4CF381
:1004F000A2FA8CF37BB9D1E9062301F1200182FA3B
:100500004CF200F10800A4FA8CF283FA4CF3A2FA40
:100510008CF3002BC6D0002A04BF04301A4612BA4E
:10052000B2FA82F2FDE8024500EBD2007047D1E951
:10053000002304F00305C4F100004FEAC50514F0E0
:10054000040F91F840F00CFA05F562EA05021CBFB1
:1005500063EA050362464FF00004A9E72DE9F04F76
:100560000124254688461646AE462A46ADF21C4D65
:1005700007461C4600214FF0FF3553189C4206EBFE
:1005800005000ED9805C16F803C0844580F0CC804D
:1005900019460122A3EB050E53189C4206EB0500F9
:1005A000F0D8CDF80CE04FF0010E724600214FF06C
:1005B000FF3053189C4206EB000C0FD91CF802C008
:1005C00016F80390E14540F2B68019460122A3EBEC
:1005D000000E53189C4206EB000CEFD86B1C013048
:1005E0009842029328BFCDE9020E05AB0DF21442EA
:1005F00043F8044F9342FBD1631E0093002C00F09C
:100600001681009B06AD721E9819019512F8011F04
:10061000D34323443344824245F82130F6D1DDE907
:1006200002233046F11800F0C5F9002840F096800A
:10063000029B013B0593F31882468146049307EB26
:10064000090E009B019A1EF8033052F82330EBB1DB
:10065000BAF1000F03D0039A934238BFA31A99440A
:100660004FF0000AA8EB04034B45E8D207EB080063
:1006700044F4006100F02AFE8044A8EB04034B45DB
:10068000DDD200200DF21C4DBDE8F08F029B5345DA
:1006900038BF53461D46009B9D4218D205EB090208
:1006A000715DB85C88423A4406EB050334D1A4F18D
:1006B000020CB444C6F1010B05E013F8010F12F867
:1006C000011F884228D19C450BEB0305F5D1029B05
:1006D0009A4580F0A980059B049A4B441178FA5CF6
:1006E00091423B4440F0A0800AEB09053D44049A46
:1006F00005E012F8010D13F8011D884203D1AB4249
:10070000A3EB0E0CF5D10AF1010AE2457DD8039B5B
:100710009944A4EB030AA5E7029BC3F101039944A2
:10072000A9444FF0000A9DE70CD04FF0010E0D4692
:100730007246714421E70BD04FF0010E0846724615
:10074000714436E7724512BF01321946012214E79F
:10075000724512BF0132194601222AE7029AA31AF2
:10076000934238BF1346511E013305937318049109
:100770000393002506EB020B07EB050E009A019987
:100780001EF8023051F8233083B11D44A8EB040356
:100790009D42F1D907EB080044F4006100F096FD9A
:1007A0008044A8EB04039D42E6D96AE7029B93428A
:1007B00017D2EA189BF80030B95C99423A4429D123
:1007C000A4F1020CB4445B46C6F1010905E013F83C
:1007D000010F12F8011F88421ED1634509EB030A7D
:1007E000F5D1049B5A1C10D0EA18039BB95C1B7806
:1007F00099423A4416D1039B05E013F8010D12F813
:10080000011D88420ED1B342F7D170460DF21C4D46
:10081000BDE8F08FDDF808A0029BC3F101031D4481
:100820005544B3E7059BB0E7DDF808C06BE706ABBE
:100830000193F4E62DE9F0410E46097890B00446A4
:10084000002958D07278002A00F08D80B0780028F6
:1008500055D0F378002B00F08D803379002B5FD0DA
:100860003046FFF70DFE804640F40071204600F050
:100870002DFD804572D8B8F1FE0F00F29280A0EBFA
:100880000807402208F1010168462744FFF706FDEA
:10089000B8F1000F10D0731E03EB08055FFA88F063
:1008A00013F8012F10A902F03F020A44F11A014483
:1008B000AB4202F8401CF3D1013C10AA14F80830F6
:1008C00003F03F03134413F8403C1C44A74203D2F7
:1008D00038E02C44A74235D314F8085010AB05F08B
:1008E0003F051D4442463146204615F8405C00F065
:1008F00061F80028EDD1204610B0BDE8F0812378E2
:1009000042EA014253B3601C617800E0204641EAAC
:100910000343441C11B39A424178F7D1441EEAE7DD
:100920002278DAB1306800BA02E0834208D00C467F
:1009300042EA03236278611C002AF6D183420DD17A
:10094000033CD8E717F8083007EB080033B14FF441
:10095000006100F0BBFC0744A742ADD20024204652
:1009600010B0BDE8F08100F04DFC0446204610B008
:10097000BDE8F0811204237842EA016242EA0022D3
:10098000002BEBD01B02601C617800E020460B437B
:100990001B02441C0029E1D09A424178F6D1841E02
:1009A000A9E70146434620463246FFF7D7FD0446F5
:1009B000A1E700BF032A70B412D940EA0105AD07D0
:1009C00004460B4620D11946204653F8045B54F8E0
:1009D000046BAE4218D1043A032A20461946F2D8D5
:1009E000541E72B103780A789A4208BF241806D0C0
:1009F0000CE010F8013F11F8012F934206D1A042FC
:100A0000F7D1002070BC7047541EEBE7981A70BCF9
:100A1000704700BF2DE9F0478E681D46AE420C4678
:100A20000B68174636D88046888910F4906F0ED12F
:100A3000354618462A46394600F054FDA268236818
:100A4000961B2B44A66023600020BDE8F087D1E907
:100A5000041606EB4606A3EB010906EBD6766B1CE3
:100A600076104B44B342324684BF1E46324643059D
:100A700012D51146404600F0F3FD824600B34A46C7
:100A8000216900F095FCA38923F4906343F080036F
:100A9000A38106E02E46CCE7404600F045FE8246A4
:100AA00050B1A6EB09020AEB09036661C4F810A075
:100AB0002360A2602E46BCE72169404600F07AFD23
:100AC0000C23C8F80030A38943F04003A3814FF002
:100AD000FF30BAE72DE9F04F936883B09046002BC2
:100AE0006DD017688D6882460C460868083743E069
:100AF000A38913F4906F2ED0D4E9041505EB4505B6
:100B0000A0EB010B05EBD5750BEB06006D1001306A
:100B1000A8422A4684BF05462A465B0536D51146BB
:100B2000504600F09DFD00283AD05A4621690190B8
:100B300000F03EFCA289019B22F4906242F0800208
:100B4000A281A5EB0B0203EB0B0065612361206022
:100B5000A2603546B3465A46494600F0C3FCD8F871
:100B60000830A2682068551B58449E1BA560206071
:100B7000C8F808601EB3083757E90296AB46002E46
:100B8000F9D0AE42B4D23546B346E4E7504600F061
:100B9000CBFD03460028D4D12169504600F00AFD60
:100BA0000C23CAF80030A389002243F040034FF021
:100BB000FF30A381C8E9012203B0BDE8F08F002017
:100BC000C8F8040003B0BDE8F08F00BF2DE9F04F76
:100BD00090468A899FB014068B46029003D50A6915
:100BE000002A00F00B81059330238DF8323098F8FD
:100BF00000308E4E002120220B918DF831200127EC
:100C0000002B00F08480252B00F0F680454603E0A1
:100C1000252B00F0868025466B786C1C002BF7D1C5
:100C2000B4EB080A73D04246534659460298FFF780
:100C3000F1FE01306BD00B9B6A7853440B93002A72
:100C400065D000234FF0FF3201340693CDE908331D
:100C50008DF85B301C93079205E0069A07FA03F3C0
:100C600013432C4606932546052215F8011B3046F2
:100C700000F04EFBAA46831B0028EED1069BD90646
:100C800044BF20228DF85B2021781A0744BF2B2215
:100C90008DF85B202A2948D1059A11680432002971
:100CA00005927EDB09916178A51C2E2956D0604CF7
:100CB0000322204600F02CFB002868D0001B069B76
:100CC000402404FA00F00343069305F10108297853
:100CD00058488DF83010062200F01AFB002866D024
:100CE000554B002B56D005AB00935A46534B0298F8
:100CF00006A9AFF300808146B9F1FF3F07D00B9BF7
:100D00004B440B9398F80030002B7FF47CAFBBF87A
:100D10000C305B0654BF0B984FF0FF301FB0BDE89E
:100D2000F08FB4EB080A8CD07DE7A1F13002092ADC
:100D300088BFA246B9D8099B01E02C460135297825
:100D400003EB830302EB4303A1F13002092AAA4615
:100D5000F3D92E2904F102050993A8D19AF80110BC
:100D60002A292ED1059B9AF802101A68079204339B
:100D7000002A05930AF103050AF1020337DB2C4C24
:100D8000032220469A4600F0C3FA002896D1A846CE
:100D900055469CE7059B073323F00703083305936B
:100DA000ADE7494243F00203099106937BE705ABA7
:100DB00000935A46214B029806A900F0D7F88146C5
:100DC0009AE7A1F130020023092A079301D923E011
:100DD0005546697803EB830302EB4303A1F130022C
:100DE000092A05F1010AF3D9023507935FE74FF0AD
:100DF000FF329A4607925AE7444622E7402103937E
:100E000000F02EFC039BCBF80000CBF8100030B1B3
:100E10004022CBF81420E6E6AA46013547E7029ABD
:100E20000C2313604FF0FF3078E700BF2067000805
:100E3000286700082C67000800000000150A000859
:100E40002DE9F0470C4691460A698968DDF8208053
:100E50008A42B8BF0A46C9F8002094F843100646F3
:100E60001F4611B10132C9F80020236899065CD5EC
:100E7000D9F800200232C9F80020236813F0060FC9
:100E800019461DD1E1688A1A002AD8BF194617DD14
:100E900004F1190A002505E0E368D9F800209B1A3F
:100EA000AB420CDD0123524639463046C047013083
:100EB00005F10105F0D14FF0FF30BDE8F087216862
:100EC00094F84330003318BF01238A060AD5E1188D
:100ED0005A1C302081F84300224494F8451082F8CF
:100EE0004310023304F1430239463046C047013013
:100EF000E1D02368A268216903F00603042B1DD00A
:100F00008A4226DD4FF00009521A91441A34002516
:100F100001E04D451DDA0123224639463046C047DF
:100F2000013005F10105F4D1C5E713F0060F13D028
:100F300094F84330003318BF0123D3E7D9F80000F9
:100F4000E3688A42A3EB000323EAE379DCDC002BAD
:100F5000DCDC0020BDE8F087E168D9F800208A1ABF
:100F6000002AD8BF194693DCAAE700BF2DE9F04359
:100F70000C46097E85B06E29064617460C989846A1
:100F800004F1430E6DD039D9732900F0F68044D9AD
:100F9000752900F00481782940F0118178232268B6
:100FA000DFF858C284F845300168150651F8043B53
:100FB000016040F1A180D10744BF42F020022260CD
:100FC000002B00F093801022002184F84310606809
:100FD000A0600028C0F2C880216821F004012160CF
:100FE000002B40F0A380002840F0C0807546082AFE
:100FF00000F0AC80AEEB0503236141E0632900F013
:10100000E5801AD8002938D0582940F0D88084F8D3
:1010100045102268DFF8E8C1C6E76F2900F0BF80FD
:10102000702940F0CC802268DFF8D0C142F0200265
:101030007823226084F84530B6E7642902D0692914
:1010400040F0BD8022680368110603F1040557D5FE
:10105000196805600B46002959DBDFF8A4C10A2294
:10106000B5E70368226861691D1D056015061B68E8
:1010700002D4500600F1BD8019600023754623613B
:10108000CDF800803B4603AA21463046FFF7D8FE44
:10109000013020D02A46236939463046C047013006
:1010A00019D022680398E368920719D51A1A002A02
:1010B00016DD04F11909002504E0E36803981A1A03
:1010C000AA420DDD01234A4639463046C047013069
:1010D00005F10105F1D14FF0FF3005B0BDE8F08317
:1010E0009842B8BF184605B0BDE8F083226822F0E8
:1010F00020022260102267E7500648BF9BB25AE7E1
:101100005106A5D5B3F9003005601946A3E761681B
:10111000A1602D200029C3F1000384F8430002DB05
:1011200022F004022260DFF8D8C00A22754600E0EF
:101130000B46B3FBF2F102FB113093421CF80000A6
:1011400005F8010DF4D2082A7FF454AF2368DB07B9
:101150007FF550AF626823699A423FF74BAF302367
:1011600005F8013C013D45E7002BDFD19CF800303C
:1011700084F8423004F1420539E703686268191DBA
:1011800001601D680021284600F0C2F8002832D016
:10119000401B60602061002384F8433070E72268C0
:1011A000036812F0800F03F104051AD01B68056074
:1011B0006F290CBF08220A22DFF844C004E701238C
:1011C00084F84210236104F14205E4E703681A68D9
:1011D000191D0123016004F1420584F842202361B6
:1011E000D9E712F0400F0DBF1B6805601B88056032
:1011F000DEE7198041E76068CCE700BF4867000878
:1012000034670008C9B200F00303002935D07BB170
:101210000378002B57D0994252D0431C05E013F8B5
:10122000012B002A4DD08A424AD09A071846F6D19F
:1012300070B441EA0126046846EA064601E050F827
:10124000044F86EA0405A5F10132A4F1013322EA34
:10125000050223EA0403134313F0803FEFD0037821
:1012600043B1994202D106E08B4204D010F8013F0D
:10127000002BF9D1184670BC70474BB10378FBB115
:10128000431C02E002780133D2B199071846F9D124
:101290000268A2F1013323EA020313F0803F08D170
:1012A00050F8042FA2F1013323EA020313F0803F28
:1012B000F6D0037823B110F8013F002BFBD1704723
:1012C0007047104670471846704700BFC9B1027892
:1012D000CAB1431C014499421A4616D010B414787E
:1012E000013334B199421A4607D014780133002CE7
:1012F000F8D1101A5DF8044B7047081A5DF8044BDA
:1013000070470846704710467047081A704700BF7C
:1013100001F0FF01102A2BDB10F0070F08D010F8A6
:10132000013B013A8B422DD010F0070F42B3F6D1AA
:10133000F0B441EA012141EA014122F007047FF0C3
:1013400000070023F0E80256083C85EA010586EA1A
:10135000010685FA47F5A3FA87F586FA47F6A5FA56
:1013600087F68EB9EED1F0BC01F0FF0102F0070262
:1013700032B110F8013B013A83EA010313B1F8D10D
:101380000020704701387047002D06BF35460338EE
:10139000073815F0010F07D1013015F4807F02BF27
:1013A000013015F4C03F0130F0BC0138704700BF78
:1013B000844641EA000313F003036DD1403A41D360
:1013C00051F8043B40F8043B51F8043B40F8043B1F
:1013D00051F8043B40F8043B51F8043B40F8043B0F
:1013E00051F8043B40F8043B51F8043B40F8043BFF
:1013F00051F8043B40F8043B51F8043B40F8043BEF
:1014000051F8043B40F8043B51F8043B40F8043BDE
:1014100051F8043B40F8043B51F8043B40F8043BCE
:1014200051F8043B40F8043B51F8043B40F8043BBE
:1014300051F8043B40F8043B51F8043B40F8043BAE
:10144000403ABDD2303211D351F8043B40F8043B4E
:1014500051F8043B40F8043B51F8043B40F8043B8E
:1014600051F8043B40F8043B103AEDD20C3205D35E
:1014700051F8043B40F8043B043AF9D2043208D056
:10148000D2071CBF11F8013B00F8013B01D30B88C8
:1014900003806046704700BF082A13D38B078DD0A6
:1014A00010F003038AD0C3F10403D21ADB071CBF78
:1014B00011F8013B00F8013B80D331F8023B20F8E2
:1014C000023B7BE7043AD9D3013A11F8013B00F81B
:1014D000013BF9D20B7803704B7843708B788370A3
:1014E000604670478842F0B40DD98B1883420AD900
:1014F000841832B1224613F8014D02F8014D994289
:10150000F9D1F0BC70470F2A0ED80346541E002AAA
:10151000F7D001340C44013B11F8012B03F8012FE3
:10152000A142F9D1F0BC704740EA01039B073BD1CF
:10153000A2F110073F0901F1200606EB071601F1A1
:10154000100300F1100453F8105C44F8105C53F8D9
:101550000C5C44F80C5C53F8085C44F8085C53F8E5
:10156000045C44F8045C1033B34204F11004EAD183
:101570007B1C1B0112F00C0F194402F00F050344F1
:1015800015D0043DAD0803EB850C1C1F0E4656F824
:10159000047B44F8047F6445F9D10135AD002B4448
:1015A000294402F00302B1E7541E0346B1E72A467C
:1015B000ACE700BF00293CD038B551F8043C0C1F03
:1015C000002BB8BFE418054600F0E6F8234B1A6874
:1015D0002AB1A2420DD921686018824223D06260EC
:1015E00028461C60BDE8384000F0D8B8A34203D8B4
:1015F0001A465368002BF9D111685018A04219D02F
:1016000024D821686018834206D06360546028465D
:10161000BDE8384000F0C2B8D3E90003014463607C
:1016200021605460F3E7D2E9000201446260216066
:10163000D6E7704720680144501883421160E6D114
:10164000D3E90003014453601160E0E70C232B60F1
:101650002846BDE8384000F0A1B800BF8C0000204B
:10166000F8B5CD1C25F0030508350C2D38BF0C2529
:10167000002D064633DBA94231D82A4F00F08CF802
:101680003A6852B113685B1B04D43FE023685B1BCC
:1016900029D522465468002CF8D1796800293BD01E
:1016A0002946304600F066F8431C28D0C41C24F0BC
:1016B0000304A04205D0211A304600F05BF8013047
:1016C0001DD02560304600F069F804F10B0020F0D1
:1016D0000700231DC21A01D01B1AA350F8BD0C220B
:1016E00032600020F8BD0B2B05D8A242636811D0F0
:1016F0005360E7E7144623601C442560E2E70C23AF
:101700003046336000F04AF80020F8BD0B2BF1D8CA
:10171000536814463B60D5E7304600F02BF87860FC
:10172000BEE700BF8C00002009B3F8B51446CAB16B
:1017300006460D4600F034F8A04202D32F46384644
:10174000F8BD21463046FFF78BFF07460028F6D04C
:1017500022462946FFF72CFE30462946FFF72AFF8E
:101760003846F8BD2746FFF725FF3846F8BD114635
:10177000FFF776BF38B5074C0023054608462360BF
:1017800002F0A2F8431C00D038BD2368002BFBD028
:101790002B6038BD8C040020704700BF704700BF2D
:1017A00051F8043C181F002BBCBF0B58C0187047E1
:1017B00081F0004102E000BF83F0004330B54FEA02
:1017C00041044FEA430594EA050F08BF90EA020F6F
:1017D0001FBF54EA000C55EA020C7FEA645C7FEA02
:1017E000655C00F0E2804FEA5454D4EB5555B8BF25
:1017F0006D420CDD2C4480EA020281EA030382EA96
:10180000000083EA010180EA020281EA0303362D27
:1018100088BF30BD11F0004F4FEA01314FF4801CFA
:101820004CEA113102D0404261EB410113F0004F0C
:101830004FEA03334CEA133302D0524263EB4303C3
:1018400094EA050F00F0A780A4F10104D5F1200E61
:101850000DDB02FA0EFC22FA05F2801841F10001BC
:1018600003FA0EF2801843FA05F359410EE0A5F190
:1018700020050EF1200E012A03FA0EFC28BF4CF0C1
:10188000020C43FA05F3C01851EBE37101F0004577
:1018900007D54FF0000EDCF1000C7EEB00006EEB84
:1018A0000101B1F5801F1BD3B1F5001F0CD349080E
:1018B0005FEA30004FEA3C0C04F101044FEA445265
:1018C00012F5800F80F09A80BCF1004F08BF5FEAEC
:1018D000500C50F1000041EB045141EA050130BDCC
:1018E0005FEA4C0C404141EB0101013C28BFB1F5DE
:1018F000801FE9D291F0000F04BF01460020B1FA29
:1019000081F308BF2033A3F10B03B3F120020CDAFB
:101910000C3208DD02F1140CC2F10C0201FA0CF0D9
:1019200021FA02F10CE002F11402D8BFC2F1200C3E
:1019300001FA02F120FA0CFCDCBF41EA0C019040F4
:10194000E41AA2BF01EB0451294330BD6FEA04043D
:101950001F3C1CDA0C340EDC04F11404C4F1200228
:1019600020FA04F001FA02F340EA030021FA04F33A
:1019700045EA030130BDC4F10C04C4F1200220FA91
:1019800002F001FA04F340EA0300294630BD21FACF
:1019900004F0294630BD94F0000F83F4801306BF95
:1019A00081F480110134013D4EE77FEA645C18BF89
:1019B0007FEA655C29D094EA050F08BF90EA020F20
:1019C00005D054EA000C04BF1946104630BD91EA18
:1019D000030F1EBF0021002030BD5FEA545C05D11B
:1019E0004000494128BF41F0004130BD14F580045A
:1019F0003CBF01F5801130BD01F0004545F0FE41CE
:101A000041F470014FF0000030BD7FEA645C1ABF02
:101A1000194610467FEA655C1CBF0B46024650EA39
:101A2000013406BF52EA033591EA030F41F4002165
:101A300030BD00BF90F0000F04BF0021704730B5EB
:101A40004FF4806404F132044FF000054FF00001C0
:101A500050E700BF90F0000F04BF0021704730B581
:101A60004FF4806404F1320410F0004548BF404256
:101A70004FF000013EE700BF42004FEAE2014FEAAB
:101A800031014FEA02701FBF12F07F4393F07F4F86
:101A900081F06051704732F07F4208BF704793F089
:101AA0007F4F04BF41F40021704730B54FF460749C
:101AB00001F0004521F000411CE700BF50EA01029F
:101AC00008BF704730B54FF000050AE050EA010248
:101AD00008BF704730B511F0004502D5404261EBB8
:101AE00041014FF4806404F132045FEA915C3FF4F9
:101AF000D8AE4FF003025FEADC0C18BF03325FEA96
:101B0000DC0C18BF033202EBDC02C2F1200300FA46
:101B100003FC20FA02F001FA03FE40EA0E0021FA6B
:101B200002F11444BDE600BF70B54FF0FF0C4CF459
:101B3000E06C1CEA11541DBF1CEA135594EA0C0F0B
:101B400095EA0C0F00F0DEF82C4481EA030621EA46
:101B50004C5123EA4C5350EA013518BF52EA033581
:101B600041F4801143F4801338D0A0FB02CE4FF033
:101B70000005E1FB02E506F00042E0FB03E54FF063
:101B80000006E1FB03569CF0000F18BF4EF0010E5B
:101B9000A4F1FF04B6F5007F64F5407404D25FEA57
:101BA0004E0E6D4146EB060642EAC62141EA55510A
:101BB0004FEAC52040EA5E504FEACE2EB4F1FD0C4C
:101BC00088BFBCF5E06F1ED8BEF1004F08BF5FEACA
:101BD000500E50F1000041EB045170BD06F000467C
:101BE00046EA010140EA020081EA0301B4EB5C0429
:101BF000C2BFD4EB0C0541EA045170BD41F4801121
:101C00004FF0000E013C00F3AB8014F1360FDEBF45
:101C1000002001F0004170BDC4F10004203C35DA21
:101C20000C341BDC04F11404C4F1200500FA05F3A4
:101C300020FA04F001FA05F240EA020001F0004245
:101C400021F0004110EBD37021FA04F642EB0601BB
:101C50005EEA430E08BF20EAD37070BDC4F10C04E5
:101C6000C4F1200500FA04F320FA05F001FA04F2A9
:101C700040EA020001F0004110EBD37041F1000195
:101C80005EEA430E08BF20EAD37070BDC4F12005A0
:101C900000FA05F24EEA020E20FA04F301FA05F208
:101CA00043EA020321FA04F001F0004121FA04F2B0
:101CB00020EA020000EBD3705EEA430E08BF20EA80
:101CC000D37070BD94F0000F0FD101F000464000BA
:101CD00041EB010111F4801F08BF013CF7D041EA3C
:101CE000060195F0000F18BF704703F00046520040
:101CF00043EB030313F4801F08BF013DF7D043EA11
:101D00000603704794EA0C0F0CEA135518BF95EAC6
:101D10000C0F0CD050EA410618BF52EA4306D1D14D
:101D200081EA030101F000414FF0000070BD50EA6C
:101D3000410606BF1046194652EA430619D094EAF6
:101D40000C0F02D150EA013613D195EA0C0F05D1E0
:101D500052EA03361CBF104619460AD181EA030134
:101D600001F0004141F0FE4141F470014FF00000EC
:101D700070BD41F0FE4141F4780170BD70B54FF087
:101D8000FF0C4CF4E06C1CEA11541DBF1CEA135507
:101D900094EA0C0F95EA0C0F00F0A7F8A4EB0504E9
:101DA00081EA030E52EA03354FEA013100F08880E0
:101DB0004FEA03334FF0805545EA131343EA1263A9
:101DC0004FEA022245EA111545EA10654FEA00265E
:101DD0000EF000419D4208BF964244F1FD0404F517
:101DE000407402D25B084FEA3202B61A65EB030573
:101DF0005B084FEA32024FF480104FF4002CB6EB30
:101E0000020E75EB030E22BFB61A754640EA0C00AF
:101E10005B084FEA3202B6EB020E75EB030E22BFEF
:101E2000B61A754640EA5C005B084FEA3202B6EB30
:101E3000020E75EB030E22BFB61A754640EA9C00EF
:101E40005B084FEA3202B6EB020E75EB030E22BFBF
:101E5000B61A754640EADC0055EA060E18D04FEA7D
:101E6000051545EA16754FEA06164FEAC30343EA1D
:101E700052734FEAC2025FEA1C1CC0D111F4801FEA
:101E80000BD141EA00014FF000004FF0004CB6E7E3
:101E900011F4801F04BF01430020B4F1FD0C88BF82
:101EA000BCF5E06F3FF6AFAEB5EB030C04BFB6EB8D
:101EB000020C5FEA500C50F1000041EB045170BD80
:101EC0000EF0004E4EEA113114EB5C04C2BFD4EBAD
:101ED0000C0541EA045170BD41F480114FF0000E31
:101EE000013C90E645EA060E8DE60CEA135594EAAD
:101EF0000C0F08BF95EA0C0F3FF43BAF94EA0C0FB0
:101F00000AD150EA01347FF434AF95EA0C0F7FF424
:101F100025AF104619462CE795EA0C0F06D152EA78
:101F200003353FF4FDAE1046194622E750EA41065C
:101F300018BF52EA43067FF4C5AE50EA41047FF46D
:101F40000DAF52EA43057FF4EBAE12E74FF0FF3CD2
:101F500006E000BF4FF0010C02E000BF4FF0010CA3
:101F60004DF804CD4FEA410C7FEA6C5C4FEA430C1C
:101F700018BF7FEA6C5C1BD001B050EA410C0CBF6B
:101F800052EA430C91EA030F02BF90EA020F0020CD
:101F9000704710F1000F91EA030F58BF994208BF34
:101FA00090422CBFD8176FEAE37040F001007047F1
:101FB0004FEA410C7FEA6C5C02D150EA013C07D148
:101FC0004FEA430C7FEA6C5CD6D152EA033CD3D093
:101FD0005DF8040B704700BF8446104662468C468D
:101FE0001946634600E000BF01B5FFF7B7FF0028C0
:101FF00048BF10F1000F01BD4DF808EDFFF7F4FFE9
:102000000CBF012000205DF808FB00BF4DF808ED73
:10201000FFF7EAFF34BF012000205DF808FB00BF96
:102020004DF808EDFFF7E0FF94BF012000205DF8B8
:1020300008FB00BF4DF808EDFFF7CEFF94BF01206D
:1020400000205DF808FB00BF4DF808EDFFF7C4FF66
:1020500034BF012000205DF808FB00BF4FEA4102B9
:1020600012F5001215D211D56FF47873B3EB6252EA
:1020700012D94FEAC12343F0004343EA505311F011
:10208000004F23FA02F018BF404270474FF00000A3
:10209000704750EA013005D111F0004008BF6FF0E1
:1020A000004070474FF00000704700BF4A0011D257
:1020B00012F5001211D20DD56FF47873B3EB6252A2
:1020C0000ED44FEAC12343F0004343EA505323FAAE
:1020D00002F070474FF00000704750EA013002D123
:1020E0004FF0FF3070474FF00000704753B94AB9C6
:1020F000002908BF00281CBF4FF0FF314FF0FF3010
:1021000000F06EB9ADF1080C6DE904CE00F006F8F0
:10211000DDF804E0DDE9022304B070472DE9F04763
:10212000089D04468C46002B40F083808A42174667
:1021300047D9B2FA82F242B1C2F1200024FA00F08B
:102140009140974040EA010C94404FEA1748230C15
:10215000BCFBF8F61FFA87FE08FB16C143EA0143F1
:1021600006FB0EF1994209D9FB1806F1FF3080F009
:102170001981994240F21681023E3B445B1AA4B297
:10218000B3FBF8F008FB103344EA034400FB0EFEF7
:10219000A64509D93C1900F1FF3380F00581A64519
:1021A00040F2028102383C4440EA0640A4EB0E04AF
:1021B00000261DB1D4400023C5E900433146BDE8E7
:1021C000F08702B9FFDEB2FA82F2002A50D1CB1BAF
:1021D0004FEA174E1FFA87F80126B3FBFEFC210CCD
:1021E0000EFB1C3341EA034108FB0CF38B4207D979
:1021F00079180CF1FF3002D28B4200F2E98084465C
:10220000C91AA3B2B1FBFEF00EFB101143EA014460
:1022100008FB00F8A04507D93C1900F1FF3302D2B2
:10222000A04500F2D9801846A4EB080440EA0C400F
:10223000BFE78B4209D9002D00F0B1800026C5E927
:10224000000130463146BDE8F087B3FA83F6002E30
:102250004AD18B4202D3824200F2B880841A61EBE9
:10226000030101208C46002DA8D0C5E9004CA5E74C
:10227000C2F1200320FA03F6974001FA02F04FEA78
:10228000174ED9403043030CB1FBFEF61FFA87F816
:102290000EFB161143EA014306FB08F1994204FACA
:1022A00002F409D9FB1806F1FF3C80F08D809942B9
:1022B00040F28A80023E3B445B1A81B2B3FBFEF0DF
:1022C0000EFB103341EA034100FB08F38B4207D9B0
:1022D000791800F1FF3C73D28B4271D9023839442E
:1022E000CB1A40EA064678E7C6F1200C03FA06F45A
:1022F00022FA0CF31C4320FA0CF701FA06F34FEA1A
:10230000144E21FA0CF11F433B0CB1FBFEF91FFAEE
:1023100084F80EFB191143EA014109FB08FA8A45CA
:1023200002FA06F200FA06F308D9611809F1FF3043
:1023300048D28A4546D9A9F102092144A1EB0A01F4
:10234000BFB2B1FBFEF00EFB101147EA014700FBE4
:1023500008F8B84507D9E71900F1FF312ED2B84582
:102360002CD90238274440EA0940A7EB0807A0FB14
:1023700002894F45C64649461AD317D05DB1B3EB23
:102380000E0267EB010707FA0CFCF2404CEA02026E
:10239000F740C5E9002700263146BDE8F0872E4604
:1023A00028460BE70646E9E61846FDE64345E5D232
:1023B000B8EB020E69EB04010138DFE70846D2E70B
:1023C00060468DE78146B9E7664675E730464AE7DD
:1023D000ACF1020C394413E702383C4424E700BF57
:1023E000704700BF7047704772B6FEE700B595B002
:1023F0003022002108A8FDF751FF00230393049326
:1024000005930693079301931F4A116C41F0805185
:102410001164126C02F080520192019A02931B4ADD
:10242000136823F4404343F480431360136803F4B8
:1024300040430293029B012308934FF48033099396
:1024400002220E924FF480030F930423109348212D
:1024500011911292139308A801F058FD80B90F232F
:10246000039302210491002305934FF480520692B6
:10247000079303A801F0ACFF20B915B05DF804FB89
:10248000FFF7B2FFFFF7B0FF0038024000700040D6
:1024900010B502F071FAFFF7A9FF00F0BDF800F0E7
:1024A0003FFB00F0A9F900F03DF900F065FA00F0FB
:1024B00027FA00214C4803F0BDFB4C4803F0A4F878
:1024C0004B494C4800F0A8FF30B101224FF40051B5
:1024D000494802F04BF9FEE74849494801F0D2F873
:1024E00030B101224FF40051434802F03FF9FEE7BA
:1024F000404800F0EEFF30B101224FF400513E4859
:1025000002F034F9FEE73F493F4801F073F83F48D5
:1025100000F0F8FA384C01224FF40051204602F046
:1025200025F94FF4FA7002F053FA00224FF40051EB
:10253000204602F01BF92F4800F021FF002840D16F
:10254000314801F059F8002842D12B4C01224FF4B8
:102550000051204602F00AF941F2883002F038FAC0
:1025600000224FF40051204602F000F94FF4FA70B7
:1025700002F02EFA1F4B9FED1A3B234A92ED022BDD
:1025800093ED121B93ED0E0B2149224801F0E0F868
:102590000028BCD00128BAD001224FF400512046B7
:1025A00002F0E4F84FF4FA7002F012FA00224FF44D
:1025B0000051204602F0DAF84FF47A7002F008FA7F
:1025C000A5E701224FF40051204602F0CFF8FEE7C4
:1025D00001224FF40051084802F0C8F8FEE700BF9E
:1025E0000000000000002840B0010020F801002099
:1025F00058010020B000002000180240DC650008EF
:10260000E86500081001002000010020C0D401008E
:10261000F4650008FC650008F0B58DB0002407944F
:10262000089409940A940B9400943B4B1A6B42F063
:1026300004021A631A6B02F004020092009A0194D9
:102640001A6B42F020021A631A6B02F02002019208
:10265000019A02941A6B42F080021A631A6B02F01C
:1026600080020292029A03941A6B42F010021A63DB
:102670001A6B02F010020392039A04941A6B42F050
:1026800040021A631A6B02F040020492049A059405
:102690001A6B42F001021A631A6B02F001020592F2
:1026A000059A06941A6B42F002021A631B6B03F040
:1026B00002030693069B194F22464FF48071384659
:1026C00002F054F8164D224642F20401284602F068
:1026D0004DF84FF4807307930126089609940A94E5
:1026E00007A9384601F04AFF0423079308960223FE
:1026F000099303230A9307A9284601F03FFF4FF4EB
:1027000000530793089609940A9407A9284601F0F4
:1027100035FF0DB0F0BD00BF003802400010024090
:102720000018024000B585B0002300930193029386
:1027300003931448144A0260436083600361037684
:1027400080F82030C362114A8262C3600122C261F4
:1027500080F83030426101F0B9F968B90423009380
:1027600001230193002302936946064801F0FCFA15
:1027700028B905B05DF804FBFFF736FEEEE7FFF77A
:1027800033FEF6E710010020002201400100000F97
:1027900000B589B000230393049305930693079330
:1027A0000268134B9A4202D009B05DF804FB002284
:1027B000019203F58B33596C41F480615964596C73
:1027C00001F48061019101990292196B41F020019D
:1027D00019631B6B03F020030293029B40230393B6
:1027E00003230493059203A9024801F0C7FEDBE727
:1027F000002201400014024008B51348134B036047
:10280000134B436000238360C3604FF48042026136
:1028100043618361C361036202F036FB50B900215A
:10282000094802F033FE40B90021074802F050FE8B
:1028300030B908BDFFF7D8FDF1E7FFF7D5FDF3E7A5
:10284000FFF7D2FDF5E700BF58010020005C004013
:10285000A08601002DE9F04188B000230393049382
:102860000593069307930268214B9A4202D008B061
:10287000BDE8F081002500951E4C236B43F0040356
:102880002363236B03F004030093009B0195236BE8
:1028900043F001032363236B03F001030193019BC6
:1028A0004FF4007303934FF01208CDF81080059594
:1028B000032706970426079603A90F4801F05EFE3A
:1028C0004FF480730393CDF8108005950697079613
:1028D00003A90A4801F052FE0295236C43F4000359
:1028E0002364236C03F400030293029BBFE700BF41
:1028F000005C004000380240000802400000024036
:1029000000B587B0002304930593009301930293CD
:1029100003931748174A02604722426083604FF6CC
:10292000FF72C26003614361836103F01BF8A8B9C1
:1029300000230493059304A90D4803F035FA80B9E8
:1029400000220092012301930292039269460848F3
:1029500003F070F840B907B05DF804FBFFF744FDE1
:10296000E6E7FFF741FDEBE7FFF73EFDF3E700BFCA
:10297000B00100200000014000B587B000230293A1
:102980000393049305930093019317484FF08042FB
:10299000026001224260836048F69F42C260036188
:1029A000836102F0B3FFA8B94FF48053029302A9E8
:1029B0000D4803F0ADF880B90023009301936946F8
:1029C000094803F0F1F958B9084B00221A6007B022
:1029D0005DF804FBFFF708FDE6E7FFF705FDEBE711
:1029E000FFF702FDF0E700BFF8010020AC01002076
:1029F00010B588B0002303930493059306930793BF
:102A00000268194B9A4201D008B010BD002401940D
:102A100003F59C335A6C42F001025A645A6C02F07E
:102A200001020192019A02941A6B42F010021A6399
:102A30001B6B03F010030293029B4FF4007303938C
:102A400002230493059406940123079303A90748DE
:102A500001F094FD224621461B2001F0FDFE1B20C3
:102A600001F02EFFD0E700BF00000140001002403F
:102A70000368B3F1804F00D0704700B583B00021E8
:102A8000019103F50E331A6C42F001021A641B6CBB
:102A900003F001030193019B0A461C2001F0DCFEB8
:102AA0001C2001F00DFF03B05DF804FB08B50368BE
:102AB000B3F1804F00D008BD074A1368013313609B
:102AC000064A9342F7D1044B00221A60FFF78AFCB2
:102AD000FFF789FCEFE700BFAC010020C0D4010084
:102AE000064B4FF08052C3F88020BFF34F8FBFF3E7
:102AF0006F8F034908681A60704700BF00E100E06B
:102B0000AC01002038B50546FFF7EAFF0446FFF7A1
:102B1000E7FF031BAB4201D28442F8D938BD000065
:102B200008B50D480D4B03604FF4E13343600023BB
:102B30008360C36003610C2242618361C36103F05F
:102B4000A7FA30B9044B1A68D36843F02003D36066
:102B500008BDFFF749FCF5E74004002000100140E4
:102B600010B588B00023039304930593069307934D
:102B7000026803F1804303F588339A4201D008B01C
:102B800010BD0024019403F594335A6C42F01002F6
:102B90005A645A6C02F010020192019A02941A6B64
:102BA00042F002021A631B6B03F002030293029BC2
:102BB000C02303930223049305940323069307235E
:102BC000079303A9054801F0D9FC22462146252098
:102BD00001F042FE252001F073FED0E70004024020
:102BE0000368084A934200D070475B68DBB2064A2C
:102BF0001268B2F5FF7FF7DC501C034908600349F7
:102C00008B54F1E7001001408404002040020020B2
:102C100000B583B08DF807000A2301220DF10701EA
:102C2000024803F064FA03B05DF804FB400400209E
:102C300070B506460D46732908D9002403E0305DBF
:102C4000FFF7E6FF0134A542F9DC70BD0A230A460E
:102C50000146024803F04BFAF7E700BF40040020AA
:102C600008B5252001F03AFE0023084A12689A426E
:102C700004DD074A0021D1540133F6E7034B00225B
:102C80001A60252001F01CFE08BD00BF840400204E
:102C90004002002010B50446252001F01FFE044923
:102CA0002046FDF78BFB252001F00AFE10BD00BF7A
:102CB000400200202DE9F041ADF5007D07460D46AC
:102CC000164601F07FFE80466846FFF7E3FF0024CA
:102CD00006E001F077FEA0EB08046846FFF7DAFF94
:102CE00039466846FDF7A6FD30B929466846FDF726
:102CF000A1FD08B9A642ECD229466846FDF79AFD27
:102D000028B9A64206D30DF5007DBDE8F0814FF04D
:102D1000FF30F8E74FF0FF30F5E700002DE9F04114
:102D2000ADF5007D05460E4601F04CFE07466846AF
:102D3000FFF7B0FF002405E001F044FEC41B684625
:102D4000FFF7A8FF11496846FDF774FD804658B9A2
:102D50000F496846FDF76EFD30B929466846FDF714
:102D600069FD08B9A642E7D2B8F1000F04D00120EE
:102D70000DF5007DBDE8F08105496846FDF75AFD77
:102D800008B10020F4E74FF0FF30F1E714660008C7
:102D90001C6600082DE9D04F0446806AFEF74AFE03
:102DA00006460F4600222D4BFEF7BEFE80468946A2
:102DB000A088FEF73FFE82468B460022284BFEF796
:102DC000B3FE02460B4640464946FEF7F5FC8046F8
:102DD0008946B4F90600FEF73DFE02460B46404622
:102DE0004946FEF7A1FE8046894600221D4B30462B
:102DF0003946FEF799FE06460F4600221A4B50460A
:102E00005946FEF791FE02460B4630463946FEF71C
:102E1000D3FC02460B46FEF787FE06460F46B4F982
:102E20000800FEF717FE02460B4630463946FEF70D
:102E30007BFE02460B4640464946FEF7BFFC06466F
:102E40000F46FFF70BF960630022084B3046394606
:102E5000FEF794FF41EC100BBDE8D08F0000103F4F
:102E60000000503F0000E03E0000203F0000B44062
:102E70002DE9F0478246406BFEF7ECFD00227A4BCD
:102E8000FEF752FE0022794BFEF796FC04460D46F3
:102E900002460B46FEF748FE06460F46BAF91400F6
:102EA000FEF7D8FD02460B4630463946FEF73CFE9B
:102EB00000224FF07C53FEF737FE06460F46BAF964
:102EC0001200FEF7C7FD22462B46FEF72DFE0246F6
:102ED0000B46FEF773FC32463B46FEF76FFC0022C2
:102EE000634BFEF721FE06460F46BAF91000FEF7C7
:102EF000B1FD00225F4BFEF717FE02460B4630463F
:102F00003946FEF75BFC80468946BAF90E00FEF7AB
:102F1000A1FD22462B46FEF707FE22462B46FEF772
:102F200003FE00224FF07B53FEF7FEFD06460F46E0
:102F3000BAF90C00FEF78EFD22462B46FEF7F4FD93
:102F400002460B4630463946FEF738FC00224FF069
:102F50007B53FEF7E9FD00224FF07C53FEF7E4FDC2
:102F60000022454BFEF72AFC04460D46BAF80A003B
:102F7000FEF760FD02460B4620462946FEF7D4FDCB
:102F800004460D4600220023FFF736F8002860D1E2
:102F9000DAF82C00FEF74EFD02460B4600203749BA
:102FA000FEF70AFC06460F460022354B40464946CE
:102FB000FEF7BAFD02460B4630463946FEF7FCFBEB
:102FC00025A3D3E90023FEF7AFFD22462B46FEF7EB
:102FD000D5FE04460D46BAF91A00FEF73BFD22461F
:102FE0002B46FEF7A1FD22462B46FEF79DFD002253
:102FF0004FF07853FEF798FD06460F46BAF91800D1
:10300000FEF728FD22462B46FEF78EFD00224FF0EC
:103010007C53FEF789FD02460B4630463946FEF7E3
:10302000CDFB06460F46BAF91600FEF713FD024621
:103030000B4630463946FEF7C1FB0022114BFEF726
:1030400073FD22462B46FEF7B9FB41EC100BBDE8A1
:10305000F0879FED030BFAE700000000006AB8401C
:1030600000000000000000000000E03F0040EF40D2
:103070000000D03F0000F0400000F03F0000304171
:103080000000303F0000B03F2DE9F0472DED028BEE
:1030900082B08246406BFEF7DDFC0022564BFEF705
:1030A0008BFB04460D46BAF83080BAF92200FEF7D1
:1030B000D1FC0022514BFEF737FD06460F46BAF908
:1030C0002400FEF7C7FC00224D4BFEF72DFD2246E3
:1030D0002B46FEF729FD02460B4630463946FEF7E1
:1030E0006DFB06460F464046FEF7B4FC32463B46B3
:1030F000FEF762FBCDE90001BAF91E00FEF7AAFC5B
:103100000022404BFEF710FD06460F469AF92600B6
:10311000FEF7A0FC00223C4BFEF706FD22462B46A4
:10312000FEF702FD804689469AF82000FEF782FCF1
:103130000022354BFEF7F8FC22462B46FEF7F4FC46
:103140000022324BFEF73AFB02460B464046494608
:10315000FEF7EAFC00222D4BFEF730FB02460B4641
:1031600030463946FEF7E0FC02460B46DDE9000139
:10317000FEF7DAFC04460D469AF81C00FEF75AFCEE
:1031800022462B46FEF7D0FC00224FF07B53FEF781
:10319000CBFC02460B4600201C49FEF70DFB2246E5
:1031A0002B46FEF7C1FC02460B4643EC182B0022CF
:1031B000174BFEF749FF48B90022002351EC180BCA
:1031C000FEF724FF20B19FED088B01E09FED088BF7
:1031D000B0EE480AF0EE680A02B0BDEC028BBDE822
:1031E000F08700BFAFF30080000000000000000087
:1031F000000000000000594000C0F24000005040B4
:103200000000103F0000F03E0000503E0000F03F84
:103210000000594000B585B000684FF0FF330293BD
:103220000123019300920A46EC2101F0BDFF05B095
:103230005DF804FB10B584B000684FF0FF340294D1
:103240000193009201230A46EC2101F0ADFF04B086
:1032500010BD30B589B0044600230093019302935A
:103260000393049305930693079319236A468821D1
:10327000FFF7E0FF051E18BF012507230DF1190216
:10328000E1212046FFF7D6FF9DF801209DF8003090
:1032900043EA0223A3809DF803209DF8023043EA0D
:1032A0000223E3809DF805209DF8043043EA0223C1
:1032B00023819DF807209DF8063043EA02236381AD
:1032C0009DF809209DF8083043EA0223A3819DF868
:1032D0000B209DF80A3043EA0223E3819DF80D207C
:1032E0009DF80C3043EA022323829DF80F209DF8BD
:1032F0000E3043EA022363829DF811209DF81030BE
:1033000043EA0223A3829DF813209DF8123043EA7A
:103310000223E3829DF815209DF8143043EA02232E
:1033200023839DF817209DF8163043EA0223638318
:103330009DF8183023779DF81A209DF8193043EA3C
:103340000223E3839DF81B3084F820309DF81C3065
:103350009DF81D1001F00F0242EA031262849DF8ED
:103360001E301B0143EA1113A3849DF91F3084F81A
:10337000263000280CBF2846681C09B030BD30B587
:1033800083B0044600230093019308236A46F72183
:10339000FFF750FF05469DF800209DF801301B0106
:1033A00043EA02339DF8022043EA1213E3629DF8D8
:1033B00003209DF804301B0143EA02339DF80520E9
:1033C00043EA1213A3629DF806209DF8073043EAF2
:1033D000022323862046FFF7DDFC84ED0E0B2046FA
:1033E000FFF746FD84ED100B2046FFF74DFE84ED00
:1033F000120B284603B030BD00B585B000684FF011
:10340000FF3302930123019300920A46EC2101F05D
:1034100019FE05B05DF804FB30B583B005460160C8
:1034200000238362C3620386436300220023C0E952
:103430000E23C0E91023C0E91223B6238DF807300C
:103440000DF10702E021FFF7D7FF041E18BF01248A
:10345000642001F0BDFA0DF10702D0212846FFF7E4
:10346000D9FE002818BF01349DF80730602B02D028
:10347000FF2003B030BD2846FFF7EBFE0444E4B262
:1034800000238DF807300DF10702F5212846FFF7DC
:10349000B3FF002818BF0134E4B201238DF80730D0
:1034A0000DF10702F2212846FFF7A6FF002818BFFA
:1034B0000134E4B226238DF807300DF10702F42120
:1034C0002846FFF799FF00280CBF2046601CC0B2B9
:1034D000CFE730B583B0054600238DF807300DF1F6
:1034E0000702F421FFF796FE041E18BF01249DF881
:1034F000073043F001038DF807300DF10702F42186
:103500002846FFF779FF6400642001F061FA204645
:1035100003B030BD00000000037F012B00D07047D6
:1035200010B504462C4B1B7813B1012B13D010BDE2
:10353000002102F0ADF8294B1860274B01221A70C8
:103540002268136A23F00A0313622268136A43F0A5
:1035500002031362EBE7002102F09AF8204B186097
:10356000236800225A621D4B1B68984225D9C01A55
:103570001C4B18601B4B1868FEF75CFA14A3D3E9C8
:103580000023FEF7D1FA0022174BFEF7CDFAFEF723
:103590008DFD164B1870104B00221A702268136AAA
:1035A00023F00A03136223681A6A1A62104B1A681E
:1035B000D36823F00203D360B9E79842DAD2C31A82
:1035C00003F57F43FF33074A1360D3E7AFF300806F
:1035D0009CC420B07268A13FA40000209C00002081
:1035E000A0000020940000200000E03F9800002090
:1035F000B00100200160704770B50446006800F01B
:1036000091FA051E18BF01254FF0FF31206800F028
:103610004BFB061E18BF01263544206800F0A0FBB6
:103620006060206800F020FB3544606840F67E53FF
:10363000984205D900220023C4E90223284670BD20
:1036400040F25653984204D800220D4BC4E902239D
:10365000F4E7FEF7EFF906A3D3E90023FEF7ACF891
:1036600005A3D3E90023FEF75FFAC4E90201E5E709
:103670000000000000FEAA401E13C4C06382A8BF61
:1036800000005940F8B500AF05460E46FFF7E8FACE
:1036900006212948FFF7CCFA41F288322749284809
:1036A000FFF708FBB0F1FF3F3BD0FFF7D9FA0D2140
:1036B0002448FFF7BDFA4FF47A7220492048FFF7FB
:1036C000F9FA0446B0F1FF3F2FD0FFF7C9FA2846B8
:1036D000FCF7D6FE04463046FCF7D2FE044418340C
:1036E00024F00704ADEB040D33462A46164968461C
:1036F000FCF742FE6846FCF7C3FE81B26846FFF75E
:1037000097FA42F2107211490D48FFF7D3FA0446B6
:10371000B0F1FF3F0CD0FFF7A3FA00242046BD46CE
:10372000F8BD0446FFF79CFAF8E7FFF799FAF5E7CA
:10373000FFF796FAF2E700BF246600082C6600083F
:10374000346600083C6600084C66000864660008A1
:103750002DE9F04F91B004AF06468B4659EC108B23
:1037600087ED041B87ED022B87ED003BFFF778FA0E
:103770003046FCF785FE213020F00700ADEB000D50
:1037800004AC32464B492046FCF7F6FD2046FCF7D8
:1037900077FE81B22046FFF74BFA4FF47A72464922
:1037A0004648FFF787FAB0F1FF3F13D0FFF758FA0A
:1037B0005846FCF765FE04463046FCF761FE0444BB
:1037C000703424F00704ADEB040D0DF1100A5546DA
:1037D000002406E00446FFF743FA60E000232B557F
:1037E00001342846FCF74CFEA042F7D84046494633
:1037F000FEF75CFC84B2D7E90401FEF757FC85B202
:10380000D7E90201FEF752FC1FFA80F8D7E9000160
:10381000FEF74CFC80B203960290CDF80480009530
:1038200023465A4626495046FCF7A6FD5046FCF76B
:1038300027FE82B2234907F11C00FCF79DFD07F12A
:103840001C00FCF71DFE81B207F11C00FFF7F0F928
:103850004FF47A7218491948FFF72CFA0446B0F170
:10386000FF3F21D0FFF7FCF95046FCF709FE81B27B
:103870005046FFF7DDF94FF47A720F490F48FFF712
:1038800019FA0446B0F1FF3F11D0FFF7E9F942F20F
:1038900010710948FFF742FA0446FFF7E1F92046A4
:1038A0003437BD46BDE8F08FFFF7DAF9F7E7FFF7E9
:1038B000D7F9F4E76C6600082C6600083466000847
:1038C00088660008F866000810B503460C4A0D49E2
:1038D0000D48006840B10C4800680344521A9342F6
:1038E00006D8094A136010BD0748084C0460F2E787
:1038F000FCF7AAFC0C2303604FF0FF30F3E700BF96
:103900000000032000040000A80000209004002014
:10391000FEE7FEE7FEE7FEE7FEE770477047704709
:1039200008B501F043F808BD08B5024801F0CCFE27
:1039300008BD00BFB001002008B5024801F0C4FE78
:1039400008BD00BFF801002010B5044C204602F06D
:10395000C5FC2046FFF744F910BD00BF400400201D
:1039600082B0002100910B4B5A6C42F480425A64A1
:103970005A6C02F480420092009A01911A6C42F053
:1039800080521A641B6C03F080530193019B02B0B8
:10399000704700BF003802404A4B5A6822F4403258
:1039A0005A605A6841680A435A600268536823F4AF
:1039B0008073536002685368016943EA01235360CE
:1039C0000268536823F0407353600268536881684B
:1039D0000B4353600268936823F4006393600268AA
:1039E0009368C1680B439360826A374B9A4257D001
:1039F0000268936823F07063936002689368816A39
:103A00000B4393600268936823F04053936002680D
:103A10009368C16A0B4393600268936823F00203C2
:103A2000936002689368017E43EA4103936090F8D3
:103A30002030002B3FD00268536843F4006353608A
:103A40000268536823F46043536001684B68426A1C
:103A5000013A43EA42334B600268D36A23F47003AD
:103A6000D3620168CB6AC269013A43EA0253CB626E
:103A70000268936823F4007393600268936890F877
:103A8000301043EA412393600268936823F4806313
:103A9000936002689368416943EA812393607047A9
:103AA0000268936823F0706393600268936823F060
:103AB00040539360B0E70268536823F40063536097
:103AC000CAE700BF002301400100000F38B310B562
:103AD0000446036C43B1236C13F0100F0BD001208C
:103AE000002384F83C3010BDFEF752FE00236364CF
:103AF00084F83C30EFE7236C23F4885323F002036F
:103B000043F0020323642046FFF746FF0020606471
:103B1000236C23F0030343F001032364E0E7012057
:103B20007047000082B00023019390F83C30012BD5
:103B300000F08980012380F83C3003689A6812F015
:103B4000010F13D19A6842F001029A60414B1B6841
:103B5000414AA2FB03239B0C03EB4303019302E0C6
:103B6000019B013B0193019B002BF9D102689368F3
:103B700013F0010F5CD0036C23F4E06323F0010326
:103B800043F480730364536813F4806F05D0036CAF
:103B900023F4405343F480530364036C13F4805FB5
:103BA0001BD0436C23F006034364002380F83C30B1
:103BB0006FF022031360294B5B6813F01F0F27D1AE
:103BC0000368274A934211D002F58072934207D0CE
:103BD000244A934214D0002033E000234364E4E7F6
:103BE00002F50072526812F01F0FF1D19A6812F0BC
:103BF000405F2AD19A6842F080429A60002020E01B
:103C000002F58072526812F0100FEFD0002018E019
:103C10000368134A934201D0002012E09A6812F020
:103C2000405F14D19A6842F080429A60002008E018
:103C3000036C43F010030364436C43F001034364DB
:103C4000002002B070470220FBE70020F9E70020C7
:103C5000F7E700BF6C00002083DE1B430023014018
:103C6000002001400022014090F83C30012B19D087
:103C7000012380F83C300268936823F001039360CD
:103C800003689B6813F0010F07D1036C23F488537A
:103C900023F0010343F001030364002380F83C3068
:103CA000184670470220704770B504460D460368F9
:103CB0009A6812F4806F03D09B6813F4807F19D147
:103CC00000F080FE064623681A6812F0020F20D129
:103CD000B5F1FF3FF7D0B5B923681B6813F0020FA9
:103CE000F1D1236C43F004032364002384F83C30B7
:103CF000032032E0036C43F020030364002380F8C8
:103D00003C30012029E000F05DFE801BA842DAD99A
:103D1000E2E76FF012021A60236C43F4007323642D
:103D200023689A6812F0405F16D1207EB0B9DA6A33
:103D300012F4700F03D09B6813F4806F0DD1236CC5
:103D400023F480732364236C13F4805F05D1236C08
:103D500043F00103236400E0002070BD0020FCE775
:103D60000368D86C7047000030B482B00023019320
:103D700090F83C30012B00F0BD80012380F83C30EE
:103D80000B68092B3ED90568EA689BB203EB430335
:103D90001E3B072404FA03F322EA0303EB600568E1
:103DA000EA688C680B8803EB43031E3B04FA03F3B9
:103DB0001343EB604B68062B3AD805686A6B03EB3C
:103DC0008303053B1F2404FA03F322EA03036B6316
:103DD00005686A6B4B6803EB8303053B0C8804FAA8
:103DE00003F313436B630268434B9A4250D002685B
:103DF000414B9A4259D0002380F83C30184602B01B
:103E000030BC704705682A699BB203EB4303072463
:103E100004FA03F322EA03032B6105682A698C681C
:103E20000B8803EB430304FA03F313432B61C1E74D
:103E30000C2B16D805682A6B03EB8303233B1F2446
:103E400004FA03F322EA03032B6305682A6B4B6829
:103E500003EB8303233B0C8804FA03F313432B6324
:103E6000C1E70568EA6A03EB8303413B1F2404FAB8
:103E700003F322EA0303EB620568EA6A4B6803EB8B
:103E80008303413B0C8804FA03F31343EB62AAE774
:103E90000B68122BABD1194B5A6822F400025A60FE
:103EA0005A6842F480025A60A1E70B68144A9342B0
:103EB00001D0112B9FD1114B5A6822F480025A6015
:103EC0005A6842F400025A600A680D4B9A4292D135
:103ED0000C4B1B680C4AA2FB03239B0C03EB8303D4
:103EE0005B00019302E0019B013B0193019B002BCE
:103EF000F9D180E7022082E7002001400023014041
:103F0000120000106C00002083DE1B43002800F02C
:103F1000DF8170B582B00446036813F0010F3BD017
:103F2000A64B9B6803F00C03042B2CD0A34B9B687F
:103F300003F00C03082B21D06368B3F5803F4FD00A
:103F4000B3F5A02F52D09D4B1A6822F480321A602C
:103F50001A6822F480221A606368002B50D000F0A7
:103F600031FD0546954B1B6813F4003F14D100F05A
:103F700029FD401B6428F5D90320B0E18F4B5B6815
:103F800013F4800FD8D08D4B1B6813F4003F03D07F
:103F90006368002B00F09E81236813F0020F54D059
:103FA000864B9B6813F00C0F3ED0844B9B6803F04C
:103FB0000C03082B33D0E368002B67D0804B012221
:103FC0001A6000F0FFFC05467C4B1B6813F0020FE3
:103FD00053D100F0F7FC401B0228F5D903207EE105
:103FE000764A136843F480331360B5E7734B1A685D
:103FF00042F480221A601A6842F480321A60ABE7F9
:1040000000F0E0FC05466D4B1B6813F4003FC3D085
:1040100000F0D8FC401B6428F5D903205FE1674B12
:104020005B6813F4800FC6D1644B1B6813F0020F5A
:1040300003D0E368012B40F04F81604A136823F0FE
:10404000F803216943EAC1031360236813F0080FE2
:1040500040D0636963B35B4B01221A6000F0B2FC8D
:104060000546564B5B6F13F0020F33D100F0AAFCEC
:10407000401B0228F5D9032031E1504A136823F090
:10408000F803216943EAC1031360DEE74C4B0022C9
:104090001A6000F097FC0546484B1B6813F0020FAE
:1040A000D3D000F08FFC401B0228F5D9032016E185
:1040B000444B00221A6000F085FC05463F4B5B6FC5
:1040C00013F0020F06D000F07DFC401B0228F5D94A
:1040D000032004E1236813F0040F78D0374B1B6CE6
:1040E00013F0805F0DD100230193344B1A6C42F022
:1040F00080521A641B6C03F080530193019B0125CD
:1041000000E00025304B1B6813F4807F21D0A368AA
:10411000012B32D0052B36D0284B1A6F22F001022A
:104120001A671A6F22F004021A67A368002B34D0B2
:1041300000F048FC0646214B1B6F13F0020F45D1DF
:1041400000F040FC801B41F288339842F3D90320F1
:10415000C5E01D4A136843F48073136000F032FC1D
:104160000646194B1B6813F4807FD0D100F02AFC5F
:10417000801B0228F5D90320B1E0104A136F43F0E9
:1041800001031367D1E70D4B1A6F42F004021A675F
:104190001A6F42F001021A67C7E700F013FC0646E7
:1041A000064B1B6F13F0020F10D000F00BFC801BAE
:1041B00041F288339842F3D9032090E0003802405E
:1041C00000004742800E474200700040EDB9A369ED
:1041D000002B00F08380494A926802F00C02082A02
:1041E00051D0022B17D0464B00221A6000F0EAFB98
:1041F0000446424B1B6813F0007F42D000F0E2FB04
:10420000001B0228F5D9032069E03C4A136C23F017
:1042100080531364DBE73A4B00221A6000F0D2FBB4
:104220000546364B1B6813F0007F06D000F0CAFB32
:10423000401B0228F5D9032051E0E369226A1343A9
:10424000626A43EA8213A26A5208013A43EA0243CD
:10425000E26A43EA0263294A5360294B01221A6049
:1042600000F0B0FB0446254B1B6813F0007F06D11D
:1042700000F0A8FB001B0228F5D903202FE0002046
:104280002DE000202BE0012B2BD01C4B5B6803F4AE
:104290008001E269914226D103F03F02216A8A42FD
:1042A00023D1616A47F6C0721A40B2EB811F1ED15A
:1042B00003F44031A26A5208013AB1EB024F18D11F
:1042C00003F07063E26AB3EB026F14D1002006E0E2
:1042D00001207047012002E0012000E0002002B030
:1042E00070BD0120FBE70120F9E70120F7E701207D
:1042F000F5E70120F3E70120F1E700BF00380240B5
:1043000060004742F8B52F4B9B6803F00C03042B69
:1043100053D0082B53D12B4B5A6802F03F025B68F5
:1043200013F4800F28D0274B5B68C3F38813580120
:104330000021C01A61F100018E0146EA90668701F2
:104340003C1A66EB0105E90041EA5471E000C0182F
:1043500041F100014B0243EAD05344022046194682
:104360000023FDF7C3FE174B5B68C3F30143013322
:104370005B00B0FBF3F023E0124B5B68C3F38813E0
:104380005C010025E41A65F10005AE0146EA946679
:10439000A701381B66EB0501CC0044EA5074C50048
:1043A000E81844F100018B0243EA9053840220464E
:1043B00019460023FDF79AFED5E7034800E00348BD
:1043C000F8BD00BF0038024000127A000024F4005B
:1043D000002800F09B8070B50D4604464F4B1B68CB
:1043E00003F00F038B4208D2CBB24C4A1370136810
:1043F00003F00F038B4240F08B80236813F0020F11
:1044000017D013F0040F04D0454A936843F4E053E7
:104410009360236813F0080F04D0414A936843F473
:10442000604393603E4A936823F0F003A1680B4316
:104430009360236813F0010F32D06368012B21D001
:104440009A1E012A25D9364A126812F0020F61D04D
:1044500033498A6822F0030213438B6000F0B2FAFA
:1044600006462F4B9B6803F00C036268B3EB820F88
:1044700016D000F0A7FA801B41F288339842F0D999
:10448000032042E0264A126812F4003FE0D10120E6
:104490003BE0234A126812F0007FD9D1012034E0BA
:1044A0001E4B1B6803F00F03AB4207D9EAB21B4B4C
:1044B0001A701B6803F00F03AB422DD1236813F071
:1044C000040F06D0164A936823F4E053E1680B43C7
:1044D0009360236813F0080F07D0114A936823F400
:1044E0006043216943EAC1039360FFF70BFF0C4B64
:1044F0009B68C3F303130B4AD35CD8400A4B186084
:104500000A4B186800F012FA002070BD01207047B5
:104510000120FAE70120F8E70120F6E7003C02401D
:1045200000380240086700086C0000206800002086
:10453000014B1868704700BF6C00002008B5FFF7FA
:10454000F7FF044B9B68C3F38223034AD35CD84034
:1045500008BD00BF003802401867000808B5FFF723
:10456000E7FF044B9B68C3F34233034AD35CD84054
:1045700008BD00BF003802401867000800230F2B59
:1045800000F2EA80F0B482B05EE086685F00032447
:10459000BC4026EA0406CC68BC40344384604668CC
:1045A00026EA02064C68C4F300129A403243426085
:1045B00058E0DC08083450F8247003F00702960035
:1045C0000F22B24027EA02070A69B2403A4340F894
:1045D00024205BE0092200E00022B2403A4302348A
:1045E0005E4E46F824205E4A1468EA4324EA050633
:1045F0004F6817F4803F01D045EA0406584C266006
:10460000646802EA04064F6817F4003F01D045EAE7
:104610000406534C6660A46802EA04064F6817F467
:10462000801F01D045EA04064D4CA660E468224094
:104630004E6816F4001F01D045EA0402484CE260BF
:1046400001330F2B00F2858001229A400C6804EAA6
:10465000020532EA0404F3D14C6804F00304013C7F
:10466000012C92D94A6802F00302032A09D0C468D7
:104670005E000322B24024EA02048A68B240224368
:10468000C2604A6802F00302022A92D004685E0007
:104690000322B24024EA02044A6802F00302B24054
:1046A000224302604A6812F4403FC9D000220192BE
:1046B0002C4A546C44F480445464526C02F480429A
:1046C0000192019A9C08A61C244A52F8267003F015
:1046D000030296000F22B24027EA0207224A9042C4
:1046E0003FF47AAF02F58062904222D002F58062F8
:1046F000904220D002F5806290421ED002F5806286
:1047000090421CD002F5806290421AD002F580627D
:10471000904218D002F58062904216D002F5806275
:10472000904214D002F5806290423FF453AF0A22C7
:1047300053E7012251E702224FE703224DE704220B
:104740004BE7052249E7062247E7072245E708220B
:1047500043E702B0F0BC7047704700BF003801402B
:10476000003C014000380240000002400AB1816173
:10477000704709048161704770B50446866D00F08A
:1047800021F994F83530DBB2022B06D08023636523
:10479000002384F83430012070BD05462268136878
:1047A00023F0160313602268536923F080035361DA
:1047B000236CE3B12268136823F0080313602268B6
:1047C000136823F00103136023681B6813F0010FC3
:1047D00011D000F0F7F8431B052BF5D920236365B2
:1047E000032084F83500002384F83430D4E7A36C28
:1047F000002BDFD1E3E7E26D3F239340B360012359
:1048000084F83530002084F83400C5E790F835305E
:10481000DBB2022B03D080234365012070470523C0
:1048200080F835300268136823F00103136000201C
:1048300070470000074AD36823F4E0631B041B0C95
:10484000000200F4E060034343F0BF6343F400332D
:10485000D360704700ED00E030B4174BDB68C3F362
:104860000223C3F10704042C28BF04241D1D062DB8
:1048700018D9033B4FF0FF3505FA04F421EA04018F
:10488000994005FA03F322EA0303194300280BDBDE
:104890000901C9B200F1604000F5614080F80013E1
:1048A00030BC70470023E5E700F00F000901C9B2F2
:1048B000024B1954F4E700BF00ED00E014ED00E0F6
:1048C000002807DB00F01F02400901239340024A41
:1048D00042F82030704700BF00E100E000280CDB08
:1048E00000F01F024009012393402030034A42F8A0
:1048F0002030BFF34F8FBFF36F8F704700E100E0B0
:104900000138B0F1807F0AD2064B5860064AF02188
:1049100082F823100020986007221A607047012057
:10492000704700BF10E000E000ED00E010B5044665
:104930000E4B18784FF47A73B3FBF0F30C4A1068FF
:10494000B0FBF3F0FFF7DCFF68B90F2C01D90120B1
:104950000AE0002221464FF0FF30FFF77DFF054BB4
:104960001C60002000E0012010BD00BF640000209A
:104970006C0000206800002008B50B4B1A6842F458
:1049800000721A601A6842F480621A601A6842F46F
:1049900080721A600320FFF74DFF0F20FFF7C6FF5C
:1049A000FEF7DEFF002008BD003C0240034A11680C
:1049B000034B1B780B441360704700BF8804002032
:1049C00064000020014B1868704700BF8804002075
:1049D00038B50446FFF7F6FF0546B4F1FF3F02D0B5
:1049E000044B1B781C44FFF7EDFF401BA042FAD399
:1049F00038BD00BF6400002003685A6912F4806F5C
:104A000001D1002070476FF480625A610023036374
:104A1000202280F83D2080F83E30026C42F00402F3
:104A2000026480F83C30012070472DE9F0410746D0
:104A30000D4690461E4622E0FFF7C4FF069BC01AB3
:104A4000B04200D8DEB900233B63202287F83D2026
:104A500087F83E303A6C42F020023A6487F83C30E6
:104A600001201AE03B689C6925EA0404A4B2B4FA68
:104A700084F46409A0450FD1B6F1FF3FDCD1C5F342
:104A80000743012BEED13B685C6925EA0404A4B21C
:104A9000B4FA84F46409EDE70020BDE8F0812DE963
:104AA000F04105460E46174698463DE01A6842F426
:104AB00000721A602B686FF480625A6100232B63C6
:104AC000202285F83D2085F83E302A6C42F0040211
:104AD0002A6485F83C30012034E0FFF773FFA0EB37
:104AE0000800B84200D8FFB900232B63202285F8C4
:104AF0003D2085F83E302A6C42F020022A6485F879
:104B00003C3001201EE02B689C6926EA0404A4B214
:104B1000003C18BF0124A4B12B685A6912F4806FBD
:104B2000C4D1B7F1FF3FD8D1C6F30743012BEAD177
:104B30002B685C6926EA0404A4B2003C18BF012477
:104B4000E9E70020BDE8F08170B504460D46164641
:104B500023685B6913F0800F1CD12046FFF74CFFE0
:104B6000D0B9B5F1FF3FF3D0FFF72CFF801BA8426F
:104B700001D8002DECD100232363202284F83D20AE
:104B800084F83E30226C42F02002226484F83C30EB
:104B9000012000E0002070BD0120FCE72DE9F0437A
:104BA00085B004460D4691461F46DDF830800D9EC7
:104BB0000368196841F48071196000964346002229
:104BC0004FF00111FFF731FF60B9236805F0FE05D2
:104BD0001D613346424626492046FFF760FF68B113
:104BE000012008E023681B6813F4807F02D04FF493
:104BF00000732364032005B0BDE8F0830023039312
:104C000023685A6903929B690393039B324641468A
:104C10002046FFF799FF30B9012F0FD123685FFAC3
:104C200089F61E61E7E7236C042B01D00120E2E73F
:104C30002268136843F400731360F7E723684FEAB0
:104C400019221A61324641462046FFF77DFF20B9FE
:104C500023685FFA89F61E61CDE7236C042B01D02F
:104C60000120C8E72268136843F400731360F7E774
:104C7000020001002DE9F04784B004460D461646B7
:104C800099460C9FDDF834800268136843F4806312
:104C900013600368196841F480711960CDF80080D1
:104CA0003B4600224FF00111FFF7BFFE70B95FFADB
:104CB00085FA236805F0FE051D6143463A464149E1
:104CC0002046FFF7ECFE68B1012008E023681B686E
:104CD00013F4807F02D04FF400732364032004B0E8
:104CE000BDE8F0870023039323685A6903929B6908
:104CF0000393039B424639462046FFF725FF80B9C0
:104D0000B9F1010F18D12368F6B21E614246394647
:104D10002046FFF719FF68B3236C042B24D0012031
:104D2000DDE7236C042B01D00120D8E7226813684B
:104D300043F400731360F7E72368320A1A614246AE
:104D400039462046FFF700FF18B92368F6B21E6106
:104D5000DCE7236C042B01D00120C0E72268136834
:104D600043F400731360F7E72268136843F4007399
:104D70001360D4E72268136843F480731360CDF89E
:104D800000803B4600224FF001112046FFF74DFE08
:104D900068B922684AF00103136143463A4609495B
:104DA0002046FFF77CFE002899D0012097E7236872
:104DB0001B6813F4807F02D04FF400732364032038
:104DC0008DE700BF0200010070B504460D4616468F
:104DD00023685B6913F0040F1CD12046FFF70CFE1B
:104DE000D0B9B5F1FF3FF3D0FFF7ECFD801BA8422F
:104DF00001D8002DECD100232363202284F83D202C
:104E000084F83E30226C42F02002226484F83C3068
:104E1000012000E0002070BD0120FCE770B50546D0
:104E20000C4616462B68596911F0400F29D1596973
:104E300011F0100F15D1FFF7C5FD801BA04201D85E
:104E4000002CEFD100232B63202285F83D2085F82C
:104E50003E302A6C42F020022A6485F83C30012062
:104E600070BD6FF010025A6100232B63202285F879
:104E70003D2085F83E302A6C2A6485F83C300120BC
:104E8000EEE70020ECE70000002800F0CC80F8B549
:104E9000044690F83D30002B77D0242384F83D3031
:104EA0002268136823F0010313602268136843F437
:104EB000004313602268136823F400431360FFF774
:104EC0003DFB62685A4B9A4264D85A4B98428CBF59
:104ED00000230123002B40F0A880574DA5FB00358F
:104EE000AF0C2668716821F03F0141EA954171607D
:104EF00021680B6A23F03F0365684D4A95424FD8FD
:104F00007A1C13430B622568E96921F44F4121F0B3
:104F1000FF016368464A93424CD801385B00B0FBFE
:104F2000F3F0013040F6FC73184278D0C0F30B0365
:104F30000B43EB6121680B6823F0C003E269206A30
:104F4000024313430B6021688B6823F4034323F06F
:104F5000FF032269E068024313438B602168CB683A
:104F600023F0FF036269A06902431343CB60226808
:104F7000136843F00103136000202064202384F8A9
:104F80003D30206384F83E00F8BD80F83C30FDF7EA
:104F900061FC82E7294B98428CBF0023012399E7EB
:104FA0004FF4967202FB07F2254DA5FB02529209BF
:104FB0000132A6E7A268BAB9461E03EB4307B6FB67
:104FC000F7F60136C6F30B06B6FA86F6760946BB47
:104FD000C2B9421E03EB4303B2FBF3F20132C2F348
:104FE0000B0242F40043A3E7461E03EB830707EBE3
:104FF0008707B6FBF7F60136C6F30B06B6FA86F658
:105000007609E4E7421E03EB830303EB8303B2FB61
:10501000F3F20132C2F30B0242F4404388E7042367
:1050200086E7012384E7012070470120ACE700BF39
:10503000A08601007F841E0083DE1B43FF083D0025
:10504000D34D62102DE9F04383B004460F469046DD
:1050500099460C9EFFF7B6FC054694F83D00C0B299
:10506000202803D0022003B0BDE8F0830095192367
:1050700001224B492046FFF7D8FC002840F08980E8
:1050800094F83C30012B00F08680012384F83C30FA
:1050900023681A6812F0010F03D11A6842F0010266
:1050A0001A602268136823F400631360212384F8D4
:1050B0003D30402384F83E30002323640A9B636222
:1050C000BDF82C306385638D2385364BE3620195F3
:1050D00000964B46424639462046FFF75FFD0028C2
:1050E0005BD1238D002B35D02A4631462046FFF771
:1050F0002BFD20BB626A236812781A61616A4B1C1F
:105100006362228D013A92B22285638D9BB2013B8C
:105110009BB263852368586910F0040FE1D0002A20
:10512000DFD04A781A61636A01336362238D013BE1
:105130002385638D9BB2013B9BB26385D1E7236CD2
:10514000042B01D001208EE72268136843F400731A
:105150001360F7E72A4631462046FFF735FE50B187
:10516000236C042B01D001207DE72268136843F4EF
:1051700000731360F7E72268136843F40073136049
:10518000202384F83D30002384F83E3084F83C30FE
:1051900069E7022067E7022065E7012063E700BFB7
:1051A000020010000000FFFF2DE9F04387B0044625
:1051B0000F4690469946109EFFF704FC054694F86A
:1051C0003D00C0B2202804D00227384607B0BDE811
:1051D000F0830095192301229D492046FFF725FC05
:1051E000002840F0448194F83C30012B00F04181CC
:1051F000012384F83C3023681A6812F0010F03D1B0
:105200001A6842F001021A602268136823F40063EE
:105210001360222384F83D30402384F83E3000237D
:1052200023640E9B6362BDF83C306385638D2385E8
:10523000884BE362019500964B464246394620462C
:10524000FFF718FD0746002840F01581238D5BB954
:10525000029323685A6902929A690292029A1A6822
:1052600042F400721A6098E0012B0AD0022B1AD087
:105270000023059323685A6905929B690593059B52
:105280008BE02268136823F4806313600023039388
:1052900023685A6903929A690392039A1A6842F43E
:1052A00000721A6079E02268136823F48063136047
:1052B0002268136843F40063136000230493236897
:1052C0005A6904929B690493049B66E02A4631461E
:1052D0002046FFF7A3FD002840F0CF8023681A691D
:1052E000636A1A70636A01336362238D013B23850D
:1052F000638D9BB2013B9BB263854EE000953346C4
:10530000002255492046FFF790FB002840F0B78067
:105310002268136843F40073136023681A69636A90
:105320001A70626A531C6362238D013B2385638D6F
:105330009BB2013B9BB2638523681B695370636A10
:1053400001336362238D013B2385638D9BB2013B57
:105350009BB2638521E02268136843F400731360F5
:1053600023681A69636A1A70626A531C6362238D28
:10537000013B2385638D9BB2013B9BB26385236810
:105380001B695370636A01336362238D013B23857C
:10539000638D9BB2013B9BB26385238D002B5DD057
:1053A000032B2BD8012B91D0022BA7D0009533468D
:1053B000002229492046FFF738FB002861D12268E6
:1053C000136823F48063136023681A69636A1A7090
:1053D000636A01336362238D013B2385638D9BB236
:1053E000013B9BB263850095334600221A49204653
:1053F000FFF71BFB0028AED00127E6E62A46314620
:105400002046FFF70BFD00283DD123681A69636A27
:105410001A70626A531C6362238D013B2385638D7E
:105420009BB2013B9BB263852368596911F0040F5D
:10543000B3D01B695370636A01336362238D013BF0
:105440002385638D9BB2013B9BB26385A5E700BFBB
:10545000020010000000FFFF04000100202384F878
:105460003D30002384F83E3084F83C30ADE602271E
:10547000ABE60227A9E60127A7E60127A5E6012753
:10548000A3E60127A1E601279FE600BF90F83D3083
:10549000DBB2202B01D002207047242380F83D305E
:1054A0000268136823F0010313600268536A23F053
:1054B000100353620268536A194351620268136809
:1054C00043F001031360202380F83D300020704733
:1054D00090F83D30DBB2202B01D00220704724230E
:1054E00080F83D300268136823F0010313600268FE
:1054F000536A9BB223F00F03194389B251620268C9
:10550000136843F001031360202380F83D3000202E
:10551000704730B4036A056A25F0010505628469A5
:1055200024F0F00444EA021423F00A030B438461DC
:10553000036230BC704730B4056A25F0100505627F
:105540008469056A24F4407444EA022424F4704413
:105550001B039BB2234325F0A005090101F0A00124
:1055600029438361016230BC704730B4056A25F07D
:10557000100505628469036A24F4704444EA023425
:1055800023F0A00343EA01138461036230BC704737
:1055900030B4056A25F480750562C469056A24F093
:1055A0000304144324F0F0041B01DBB2234325F46D
:1055B0002065090201F420612943C361016230BC06
:1055C000704730B4056A25F480550562C469056AE0
:1055D00024F4407444EA022424F470441B039BB274
:1055E000234325F42045090301F420412943C361E5
:1055F000016230BC7047836823F070030B4343F0B3
:10560000070383607047000090F83D30DBB2012B48
:1056100037D1022380F83D300268D36843F001039C
:10562000D3600368194A934220D0B3F1804F1DD054
:10563000A2F57C42934219D002F58062934215D0C4
:1056400002F58062934211D002F5784293420DD068
:1056500002F57052934209D0A2F59432934205D0DC
:105660001A6842F001021A60002070479A6802F03E
:105670000702062A07D01A6842F001021A600020C9
:105680007047012070470020704700BF00000140B4
:105690000C2914D8DFE801F0071313130A131313AE
:1056A0000D13131310000368586B70470368986B51
:1056B00070470368D86B70470368186C7047002008
:1056C000704770477047704710B5044603681A6901
:1056D00012F0020F11D0DA6812F0020F0DD06FF045
:1056E00002021A610123037703689B6913F0030F19
:1056F00070D0FDF711FF0023237723681A6912F099
:10570000040F12D0DA6812F0040F0ED06FF004020A
:105710001A610223237723689B6913F4407F5FD0CB
:105720002046FDF7F9FE0023237723681A6912F05B
:10573000080F12D0DA6812F0080F0ED06FF00802CE
:105740001A61042323772368DB6913F0030F4ED01B
:105750002046FDF7E1FE0023237723681A6912F043
:10576000100F12D0DA6812F0100F0ED06FF0100286
:105770001A61082323772368DB6913F4407F3DD047
:105780002046FDF7C9FE0023237723681A6912F02B
:10579000010F03D0DA6812F0010F36D123681A69BD
:1057A00012F0800F03D0DA6812F0800F34D1236832
:1057B0001A6912F0400F03D0DA6812F0400F32D1AC
:1057C00023681A6912F0200F03D0DA6812F0200F54
:1057D00030D110BDFFF775FF2046FFF773FF8AE752
:1057E0002046FFF76EFF2046FFF76CFF9BE7204641
:1057F000FFF767FF2046FFF765FFACE72046FFF79E
:1058000060FF2046FFF75EFFBDE76FF001021A61FF
:105810002046FDF74BF9C1E76FF080021A61204680
:1058200000F007FBC3E76FF040021A612046FFF764
:105830004AFFC5E76FF020021A61204600F0F8FA2F
:10584000C7E700000368304A904212D0B0F1804FA1
:105850000FD0A2F57C4290420BD002F580629042BC
:1058600007D002F58062904203D002F57842904260
:1058700003D123F070034A681343234A90422AD08D
:10588000B0F1804F27D0A2F57C42904223D002F5A0
:10589000806290421FD002F5806290421BD002F5D8
:1058A0007842904217D002F57052904213D002F520
:1058B000806290420FD002F5806290420BD0A2F538
:1058C0009832904207D002F58062904203D002F5F0
:1058D0008062904203D123F44073CA68134323F0DB
:1058E00080034A69134303608B68C3620B68836259
:1058F000054B984203D003F58063984201D10B69B0
:1059000003630123436170470000014040B310B5B9
:10591000044690F83D30F3B1022384F83D3021462F
:1059200051F8040BFFF78EFF012384F8463084F80A
:105930003E3084F83F3084F8403084F8413084F8B9
:10594000423084F8433084F8443084F8453084F899
:105950003D30002010BD80F83C30FDF789F8DBE7D2
:105960000120704740B310B5044690F83D30F3B1C4
:10597000022384F83D30214651F8040BFFF762FF03
:10598000012384F8463084F83E3084F83F3084F8B0
:10599000403084F8413084F8423084F8433084F851
:1059A000443084F8453084F83D30002010BD80F844
:1059B0003C30FDF71DF8DBE70120704770B4046A46
:1059C00024F0010404628469066A194DA8421DD0BE
:1059D000B0F1804F1AD0A5F57C45A84216D005F548
:1059E0008065A84212D005F58065A8420ED005F565
:1059F0007845A8420AD005F57055A84206D0A5F50D
:105A00009435A84202D044F0010202E024F00304DD
:105A1000224322F0F0021B01DBB2134326F00A02FC
:105A200001F00A0111438361016270BC704700BF3D
:105A30000000014038B590F83C30012B5AD00446A4
:105A40000D46012380F83C3052B1042A1AD0082AAE
:105A50002BD00C2A3BD00120002384F83C3038BDE9
:105A6000CB684A6809680068FFF7A8FF2268936955
:105A700023F00C03936122689369A9680B43936137
:105A80000020E9E7CB684A6809680068FFF753FD22
:105A90002268936923F44063936122689369A9683B
:105AA00043EA012393610020D6E7CB684A6809687E
:105AB0000068FFF76DFD2268D36923F00C03D36102
:105AC0002268D369A9680B43D3610020C4E7CB687F
:105AD0004A6809680068FFF774FD2268D36923F4F7
:105AE0004063D3612268D369A96843EA0123D36183
